{
  "_format": "hh-sol-artifact-1",
  "contractName": "Zwillo",
  "sourceName": "contracts/Zwillo.sol",
  "abi": [
    {
      "inputs": [
        {
          "internalType": "uint256",
          "name": "_price",
          "type": "uint256"
        }
      ],
      "stateMutability": "nonpayable",
      "type": "constructor"
    },
    {
      "anonymous": false,
      "inputs": [
        {
          "indexed": true,
          "internalType": "address",
          "name": "owner",
          "type": "address"
        },
        {
          "indexed": true,
          "internalType": "address",
          "name": "approved",
          "type": "address"
        },
        {
          "indexed": true,
          "internalType": "uint256",
          "name": "tokenId",
          "type": "uint256"
        }
      ],
      "name": "Approval",
      "type": "event"
    },
    {
      "anonymous": false,
      "inputs": [
        {
          "indexed": true,
          "internalType": "address",
          "name": "owner",
          "type": "address"
        },
        {
          "indexed": true,
          "internalType": "address",
          "name": "operator",
          "type": "address"
        },
        {
          "indexed": false,
          "internalType": "bool",
          "name": "approved",
          "type": "bool"
        }
      ],
      "name": "ApprovalForAll",
      "type": "event"
    },
    {
      "anonymous": false,
      "inputs": [
        {
          "indexed": true,
          "internalType": "address",
          "name": "from",
          "type": "address"
        },
        {
          "indexed": true,
          "internalType": "address",
          "name": "to",
          "type": "address"
        },
        {
          "indexed": true,
          "internalType": "uint256",
          "name": "tokenId",
          "type": "uint256"
        }
      ],
      "name": "Transfer",
      "type": "event"
    },
    {
      "inputs": [
        {
          "internalType": "address",
          "name": "to",
          "type": "address"
        },
        {
          "internalType": "uint256",
          "name": "tokenId",
          "type": "uint256"
        }
      ],
      "name": "approve",
      "outputs": [],
      "stateMutability": "nonpayable",
      "type": "function"
    },
    {
      "inputs": [
        {
          "internalType": "address",
          "name": "owner",
          "type": "address"
        }
      ],
      "name": "balanceOf",
      "outputs": [
        {
          "internalType": "uint256",
          "name": "",
          "type": "uint256"
        }
      ],
      "stateMutability": "view",
      "type": "function"
    },
    {
      "inputs": [
        {
          "internalType": "uint256",
          "name": "_id",
          "type": "uint256"
        }
      ],
      "name": "buyAsset",
      "outputs": [],
      "stateMutability": "payable",
      "type": "function"
    },
    {
      "inputs": [
        {
          "internalType": "uint256",
          "name": "tokenId",
          "type": "uint256"
        }
      ],
      "name": "getApproved",
      "outputs": [
        {
          "internalType": "address",
          "name": "",
          "type": "address"
        }
      ],
      "stateMutability": "view",
      "type": "function"
    },
    {
      "inputs": [
        {
          "internalType": "uint256",
          "name": "_id",
          "type": "uint256"
        }
      ],
      "name": "getAssetDetails",
      "outputs": [
        {
          "components": [
            {
              "internalType": "uint256",
              "name": "id",
              "type": "uint256"
            },
            {
              "internalType": "string",
              "name": "imageURL",
              "type": "string"
            },
            {
              "internalType": "string",
              "name": "owershipURL",
              "type": "string"
            },
            {
              "internalType": "uint256",
              "name": "amt",
              "type": "uint256"
            },
            {
              "internalType": "bool",
              "name": "isVerfied",
              "type": "bool"
            },
            {
              "internalType": "bool",
              "name": "isSold",
              "type": "bool"
            },
            {
              "internalType": "address payable",
              "name": "seller",
              "type": "address"
            },
            {
              "internalType": "address payable",
              "name": "owner",
              "type": "address"
            }
          ],
          "internalType": "struct Zwillo.Property",
          "name": "",
          "type": "tuple"
        }
      ],
      "stateMutability": "view",
      "type": "function"
    },
    {
      "inputs": [],
      "name": "getMyAsset",
      "outputs": [
        {
          "components": [
            {
              "internalType": "uint256",
              "name": "id",
              "type": "uint256"
            },
            {
              "internalType": "string",
              "name": "imageURL",
              "type": "string"
            },
            {
              "internalType": "string",
              "name": "owershipURL",
              "type": "string"
            },
            {
              "internalType": "uint256",
              "name": "amt",
              "type": "uint256"
            },
            {
              "internalType": "bool",
              "name": "isVerfied",
              "type": "bool"
            },
            {
              "internalType": "bool",
              "name": "isSold",
              "type": "bool"
            },
            {
              "internalType": "address payable",
              "name": "seller",
              "type": "address"
            },
            {
              "internalType": "address payable",
              "name": "owner",
              "type": "address"
            }
          ],
          "internalType": "struct Zwillo.Property[]",
          "name": "",
          "type": "tuple[]"
        }
      ],
      "stateMutability": "view",
      "type": "function"
    },
    {
      "inputs": [
        {
          "internalType": "address",
          "name": "owner",
          "type": "address"
        },
        {
          "internalType": "address",
          "name": "operator",
          "type": "address"
        }
      ],
      "name": "isApprovedForAll",
      "outputs": [
        {
          "internalType": "bool",
          "name": "",
          "type": "bool"
        }
      ],
      "stateMutability": "view",
      "type": "function"
    },
    {
      "inputs": [
        {
          "internalType": "string",
          "name": "_imageURL",
          "type": "string"
        },
        {
          "internalType": "uint256",
          "name": "_amt",
          "type": "uint256"
        }
      ],
      "name": "listAsset",
      "outputs": [
        {
          "internalType": "uint256",
          "name": "",
          "type": "uint256"
        }
      ],
      "stateMutability": "payable",
      "type": "function"
    },
    {
      "inputs": [],
      "name": "listedItems",
      "outputs": [
        {
          "internalType": "uint256",
          "name": "",
          "type": "uint256"
        }
      ],
      "stateMutability": "view",
      "type": "function"
    },
    {
      "inputs": [],
      "name": "listingPrice",
      "outputs": [
        {
          "internalType": "uint256",
          "name": "",
          "type": "uint256"
        }
      ],
      "stateMutability": "view",
      "type": "function"
    },
    {
      "inputs": [],
      "name": "name",
      "outputs": [
        {
          "internalType": "string",
          "name": "",
          "type": "string"
        }
      ],
      "stateMutability": "view",
      "type": "function"
    },
    {
      "inputs": [
        {
          "internalType": "uint256",
          "name": "tokenId",
          "type": "uint256"
        }
      ],
      "name": "ownerOf",
      "outputs": [
        {
          "internalType": "address",
          "name": "",
          "type": "address"
        }
      ],
      "stateMutability": "view",
      "type": "function"
    },
    {
      "inputs": [
        {
          "internalType": "uint256",
          "name": "",
          "type": "uint256"
        }
      ],
      "name": "property",
      "outputs": [
        {
          "internalType": "uint256",
          "name": "id",
          "type": "uint256"
        },
        {
          "internalType": "string",
          "name": "imageURL",
          "type": "string"
        },
        {
          "internalType": "string",
          "name": "owershipURL",
          "type": "string"
        },
        {
          "internalType": "uint256",
          "name": "amt",
          "type": "uint256"
        },
        {
          "internalType": "bool",
          "name": "isVerfied",
          "type": "bool"
        },
        {
          "internalType": "bool",
          "name": "isSold",
          "type": "bool"
        },
        {
          "internalType": "address payable",
          "name": "seller",
          "type": "address"
        },
        {
          "internalType": "address payable",
          "name": "owner",
          "type": "address"
        }
      ],
      "stateMutability": "view",
      "type": "function"
    },
    {
      "inputs": [
        {
          "internalType": "address",
          "name": "from",
          "type": "address"
        },
        {
          "internalType": "address",
          "name": "to",
          "type": "address"
        },
        {
          "internalType": "uint256",
          "name": "tokenId",
          "type": "uint256"
        }
      ],
      "name": "safeTransferFrom",
      "outputs": [],
      "stateMutability": "nonpayable",
      "type": "function"
    },
    {
      "inputs": [
        {
          "internalType": "address",
          "name": "from",
          "type": "address"
        },
        {
          "internalType": "address",
          "name": "to",
          "type": "address"
        },
        {
          "internalType": "uint256",
          "name": "tokenId",
          "type": "uint256"
        },
        {
          "internalType": "bytes",
          "name": "data",
          "type": "bytes"
        }
      ],
      "name": "safeTransferFrom",
      "outputs": [],
      "stateMutability": "nonpayable",
      "type": "function"
    },
    {
      "inputs": [
        {
          "internalType": "address",
          "name": "operator",
          "type": "address"
        },
        {
          "internalType": "bool",
          "name": "approved",
          "type": "bool"
        }
      ],
      "name": "setApprovalForAll",
      "outputs": [],
      "stateMutability": "nonpayable",
      "type": "function"
    },
    {
      "inputs": [
        {
          "internalType": "bytes4",
          "name": "interfaceId",
          "type": "bytes4"
        }
      ],
      "name": "supportsInterface",
      "outputs": [
        {
          "internalType": "bool",
          "name": "",
          "type": "bool"
        }
      ],
      "stateMutability": "view",
      "type": "function"
    },
    {
      "inputs": [],
      "name": "symbol",
      "outputs": [
        {
          "internalType": "string",
          "name": "",
          "type": "string"
        }
      ],
      "stateMutability": "view",
      "type": "function"
    },
    {
      "inputs": [
        {
          "internalType": "uint256",
          "name": "tokenId",
          "type": "uint256"
        }
      ],
      "name": "tokenURI",
      "outputs": [
        {
          "internalType": "string",
          "name": "",
          "type": "string"
        }
      ],
      "stateMutability": "view",
      "type": "function"
    },
    {
      "inputs": [
        {
          "internalType": "address",
          "name": "from",
          "type": "address"
        },
        {
          "internalType": "address",
          "name": "to",
          "type": "address"
        },
        {
          "internalType": "uint256",
          "name": "tokenId",
          "type": "uint256"
        }
      ],
      "name": "transferFrom",
      "outputs": [],
      "stateMutability": "nonpayable",
      "type": "function"
    },
    {
      "inputs": [
        {
          "internalType": "uint256",
          "name": "_id",
          "type": "uint256"
        },
        {
          "internalType": "string",
          "name": "_owershipURL",
          "type": "string"
        }
      ],
      "name": "verfiy",
      "outputs": [],
      "stateMutability": "nonpayable",
      "type": "function"
    }
  ],
  "bytecode": "0x60806040523480156200001157600080fd5b5060405162003dce38038062003dce833981810160405281019062000037919062000117565b6040518060400160405280600681526020017f5a77696c6c6f00000000000000000000000000000000000000000000000000008152506040518060400160405280600281526020017f5a570000000000000000000000000000000000000000000000000000000000008152508160009081620000b49190620003b9565b508060019081620000c69190620003b9565b5050508060088190555050620004a0565b600080fd5b6000819050919050565b620000f181620000dc565b8114620000fd57600080fd5b50565b6000815190506200011181620000e6565b92915050565b60006020828403121562000130576200012f620000d7565b5b6000620001408482850162000100565b91505092915050565b600081519050919050565b7f4e487b7100000000000000000000000000000000000000000000000000000000600052604160045260246000fd5b7f4e487b7100000000000000000000000000000000000000000000000000000000600052602260045260246000fd5b60006002820490506001821680620001cb57607f821691505b602082108103620001e157620001e062000183565b5b50919050565b60008190508160005260206000209050919050565b60006020601f8301049050919050565b600082821b905092915050565b6000600883026200024b7fffffffffffffffffffffffffffffffffffffffffffffffffffffffffffffffff826200020c565b6200025786836200020c565b95508019841693508086168417925050509392505050565b6000819050919050565b60006200029a620002946200028e84620000dc565b6200026f565b620000dc565b9050919050565b6000819050919050565b620002b68362000279565b620002ce620002c582620002a1565b84845462000219565b825550505050565b600090565b620002e5620002d6565b620002f2818484620002ab565b505050565b5b818110156200031a576200030e600082620002db565b600181019050620002f8565b5050565b601f82111562000369576200033381620001e7565b6200033e84620001fc565b810160208510156200034e578190505b620003666200035d85620001fc565b830182620002f7565b50505b505050565b600082821c905092915050565b60006200038e600019846008026200036e565b1980831691505092915050565b6000620003a983836200037b565b9150826002028217905092915050565b620003c48262000149565b67ffffffffffffffff811115620003e057620003df62000154565b5b620003ec8254620001b2565b620003f98282856200031e565b600060209050601f8311600181146200043157600084156200041c578287015190505b6200042885826200039b565b86555062000498565b601f1984166200044186620001e7565b60005b828110156200046b5784890151825560018201915060208501945060208101905062000444565b868310156200048b578489015162000487601f8916826200037b565b8355505b6001600288020188555050505b505050505050565b61391e80620004b06000396000f3fe60806040526004361061012a5760003560e01c8063695b3f10116100ab578063a22cb4651161006f578063a22cb46514610417578063b88d4fde14610440578063c78f19f914610469578063c87b56dd14610494578063cc8a42ad146104d1578063e985e9c5146104fa5761012a565b8063695b3f101461031757806370a08231146103425780639163f2d91461037f57806395d89b41146103af578063a1f24b3d146103da5761012a565b806323b872dd116100f257806323b872dd146102195780632b5e0ba81461024257806330e1ad321461026d57806342842e0e146102b15780636352211e146102da5761012a565b806301ffc9a71461012f57806306fdde031461016c578063081812fc14610197578063095ea7b3146101d4578063110d35b8146101fd575b600080fd5b34801561013b57600080fd5b5061015660048036038101906101519190612307565b610537565b604051610163919061234f565b60405180910390f35b34801561017857600080fd5b50610181610619565b60405161018e91906123fa565b60405180910390f35b3480156101a357600080fd5b506101be60048036038101906101b99190612452565b6106ab565b6040516101cb91906124c0565b60405180910390f35b3480156101e057600080fd5b506101fb60048036038101906101f69190612507565b6106f1565b005b61021760048036038101906102129190612452565b610808565b005b34801561022557600080fd5b50610240600480360381019061023b9190612547565b6108d5565b005b34801561024e57600080fd5b50610257610935565b60405161026491906125a9565b60405180910390f35b34801561027957600080fd5b50610294600480360381019061028f9190612452565b61093b565b6040516102a89897969594939291906125e5565b60405180910390f35b3480156102bd57600080fd5b506102d860048036038101906102d39190612547565b610aed565b005b3480156102e657600080fd5b5061030160048036038101906102fc9190612452565b610b0d565b60405161030e91906124c0565b60405180910390f35b34801561032357600080fd5b5061032c610b93565b6040516103399190612861565b60405180910390f35b34801561034e57600080fd5b5061036960048036038101906103649190612883565b610ebf565b60405161037691906125a9565b60405180910390f35b610399600480360381019061039491906129e5565b610f76565b6040516103a691906125a9565b60405180910390f35b3480156103bb57600080fd5b506103c46110a6565b6040516103d191906123fa565b60405180910390f35b3480156103e657600080fd5b5061040160048036038101906103fc9190612452565b611138565b60405161040e9190612af8565b60405180910390f35b34801561042357600080fd5b5061043e60048036038101906104399190612b46565b6113c5565b005b34801561044c57600080fd5b5061046760048036038101906104629190612c27565b6113db565b005b34801561047557600080fd5b5061047e61143d565b60405161048b91906125a9565b60405180910390f35b3480156104a057600080fd5b506104bb60048036038101906104b69190612452565b611443565b6040516104c891906123fa565b60405180910390f35b3480156104dd57600080fd5b506104f860048036038101906104f39190612caa565b611555565b005b34801561050657600080fd5b50610521600480360381019061051c9190612d06565b6115f2565b60405161052e919061234f565b60405180910390f35b60007f80ac58cd000000000000000000000000000000000000000000000000000000007bffffffffffffffffffffffffffffffffffffffffffffffffffffffff1916827bffffffffffffffffffffffffffffffffffffffffffffffffffffffff1916148061060257507f5b5e139f000000000000000000000000000000000000000000000000000000007bffffffffffffffffffffffffffffffffffffffffffffffffffffffff1916827bffffffffffffffffffffffffffffffffffffffffffffffffffffffff1916145b80610612575061061182611686565b5b9050919050565b60606000805461062890612d75565b80601f016020809104026020016040519081016040528092919081815260200182805461065490612d75565b80156106a15780601f10610676576101008083540402835291602001916106a1565b820191906000526020600020905b81548152906001019060200180831161068457829003601f168201915b5050505050905090565b60006106b6826116f0565b6004600083815260200190815260200160002060009054906101000a900473ffffffffffffffffffffffffffffffffffffffff169050919050565b60006106fc82610b0d565b90508073ffffffffffffffffffffffffffffffffffffffff168373ffffffffffffffffffffffffffffffffffffffff160361076c576040517f08c379a000000000000000000000000000000000000000000000000000000000815260040161076390612e18565b60405180910390fd5b8073ffffffffffffffffffffffffffffffffffffffff1661078b61173b565b73ffffffffffffffffffffffffffffffffffffffff1614806107ba57506107b9816107b461173b565b6115f2565b5b6107f9576040517f08c379a00000000000000000000000000000000000000000000000000000000081526004016107f090612eaa565b60405180910390fd5b6108038383611743565b505050565b60006009600083815260200190815260200160002090508060040160019054906101000a900460ff1615610871576040517f08c379a000000000000000000000000000000000000000000000000000000000815260040161086890612f3c565b60405180910390fd5b338160050160006101000a81548173ffffffffffffffffffffffffffffffffffffffff021916908373ffffffffffffffffffffffffffffffffffffffff16021790555060018160040160016101000a81548160ff0219169083151502179055505050565b6108e66108e061173b565b826117fc565b610925576040517f08c379a000000000000000000000000000000000000000000000000000000000815260040161091c90612fce565b60405180910390fd5b610930838383611891565b505050565b60075481565b600960205280600052604060002060009150905080600001549080600101805461096490612d75565b80601f016020809104026020016040519081016040528092919081815260200182805461099090612d75565b80156109dd5780601f106109b2576101008083540402835291602001916109dd565b820191906000526020600020905b8154815290600101906020018083116109c057829003601f168201915b5050505050908060020180546109f290612d75565b80601f0160208091040260200160405190810160405280929190818152602001828054610a1e90612d75565b8015610a6b5780601f10610a4057610100808354040283529160200191610a6b565b820191906000526020600020905b815481529060010190602001808311610a4e57829003601f168201915b5050505050908060030154908060040160009054906101000a900460ff16908060040160019054906101000a900460ff16908060040160029054906101000a900473ffffffffffffffffffffffffffffffffffffffff16908060050160009054906101000a900473ffffffffffffffffffffffffffffffffffffffff16905088565b610b08838383604051806020016040528060008152506113db565b505050565b600080610b1983611b8a565b9050600073ffffffffffffffffffffffffffffffffffffffff168173ffffffffffffffffffffffffffffffffffffffff1603610b8a576040517f08c379a0000000000000000000000000000000000000000000000000000000008152600401610b819061303a565b60405180910390fd5b80915050919050565b6060600060075467ffffffffffffffff811115610bb357610bb26128ba565b5b604051908082528060200260200182016040528015610bec57816020015b610bd9612226565b815260200190600190039081610bd15790505b509050600080600190505b6007548111610eb6576000600960008381526020019081526020016000206040518061010001604052908160008201548152602001600182018054610c3b90612d75565b80601f0160208091040260200160405190810160405280929190818152602001828054610c6790612d75565b8015610cb45780601f10610c8957610100808354040283529160200191610cb4565b820191906000526020600020905b815481529060010190602001808311610c9757829003601f168201915b50505050508152602001600282018054610ccd90612d75565b80601f0160208091040260200160405190810160405280929190818152602001828054610cf990612d75565b8015610d465780601f10610d1b57610100808354040283529160200191610d46565b820191906000526020600020905b815481529060010190602001808311610d2957829003601f168201915b50505050508152602001600382015481526020016004820160009054906101000a900460ff161515151581526020016004820160019054906101000a900460ff161515151581526020016004820160029054906101000a900473ffffffffffffffffffffffffffffffffffffffff1673ffffffffffffffffffffffffffffffffffffffff1673ffffffffffffffffffffffffffffffffffffffff1681526020016005820160009054906101000a900473ffffffffffffffffffffffffffffffffffffffff1673ffffffffffffffffffffffffffffffffffffffff1673ffffffffffffffffffffffffffffffffffffffff168152505090503373ffffffffffffffffffffffffffffffffffffffff168160e0015173ffffffffffffffffffffffffffffffffffffffff1603610ea25780848481518110610e8857610e8761305a565b5b60200260200101819052508280610e9e906130b8565b9350505b508080610eae906130b8565b915050610bf7565b50819250505090565b60008073ffffffffffffffffffffffffffffffffffffffff168273ffffffffffffffffffffffffffffffffffffffff1603610f2f576040517f08c379a0000000000000000000000000000000000000000000000000000000008152600401610f2690613172565b60405180910390fd5b600360008373ffffffffffffffffffffffffffffffffffffffff1673ffffffffffffffffffffffffffffffffffffffff168152602001908152602001600020549050919050565b6000600854341015610fbd576040517f08c379a0000000000000000000000000000000000000000000000000000000008152600401610fb4906131de565b60405180910390fd5b60076000815480929190610fd0906130b8565b91905055506000600960006007548152602001908152602001600020905060075481600001819055508381600101908161100a91906133aa565b50828160030181905550338160050160006101000a81548173ffffffffffffffffffffffffffffffffffffffff021916908373ffffffffffffffffffffffffffffffffffffffff160217905550308160040160026101000a81548173ffffffffffffffffffffffffffffffffffffffff021916908373ffffffffffffffffffffffffffffffffffffffff16021790555060075491505092915050565b6060600180546110b590612d75565b80601f01602080910402602001604051908101604052809291908181526020018280546110e190612d75565b801561112e5780601f106111035761010080835404028352916020019161112e565b820191906000526020600020905b81548152906001019060200180831161111157829003601f168201915b5050505050905090565b611140612226565b600754821115611185576040517f08c379a000000000000000000000000000000000000000000000000000000000815260040161117c906134c8565b60405180910390fd5b6009600083815260200190815260200160002060405180610100016040529081600082015481526020016001820180546111be90612d75565b80601f01602080910402602001604051908101604052809291908181526020018280546111ea90612d75565b80156112375780601f1061120c57610100808354040283529160200191611237565b820191906000526020600020905b81548152906001019060200180831161121a57829003601f168201915b5050505050815260200160028201805461125090612d75565b80601f016020809104026020016040519081016040528092919081815260200182805461127c90612d75565b80156112c95780601f1061129e576101008083540402835291602001916112c9565b820191906000526020600020905b8154815290600101906020018083116112ac57829003601f168201915b50505050508152602001600382015481526020016004820160009054906101000a900460ff161515151581526020016004820160019054906101000a900460ff161515151581526020016004820160029054906101000a900473ffffffffffffffffffffffffffffffffffffffff1673ffffffffffffffffffffffffffffffffffffffff1673ffffffffffffffffffffffffffffffffffffffff1681526020016005820160009054906101000a900473ffffffffffffffffffffffffffffffffffffffff1673ffffffffffffffffffffffffffffffffffffffff1673ffffffffffffffffffffffffffffffffffffffff16815250509050919050565b6113d76113d061173b565b8383611bc7565b5050565b6113ec6113e661173b565b836117fc565b61142b576040517f08c379a000000000000000000000000000000000000000000000000000000000815260040161142290612fce565b60405180910390fd5b61143784848484611d33565b50505050565b60085481565b606061144e826116f0565b600060066000848152602001908152602001600020805461146e90612d75565b80601f016020809104026020016040519081016040528092919081815260200182805461149a90612d75565b80156114e75780601f106114bc576101008083540402835291602001916114e7565b820191906000526020600020905b8154815290600101906020018083116114ca57829003601f168201915b5050505050905060006114f8611d8f565b9050600081510361150d578192505050611550565b60008251111561154257808260405160200161152a929190613524565b60405160208183030381529060405292505050611550565b61154b84611da6565b925050505b919050565b60006009600084815260200190815260200160002090508060040160009054906101000a900460ff16156115be576040517f08c379a00000000000000000000000000000000000000000000000000000000081526004016115b590613594565b60405180910390fd5b60018160040160006101000a81548160ff021916908315150217905550818160020190816115ec91906133aa565b50505050565b6000600560008473ffffffffffffffffffffffffffffffffffffffff1673ffffffffffffffffffffffffffffffffffffffff16815260200190815260200160002060008373ffffffffffffffffffffffffffffffffffffffff1673ffffffffffffffffffffffffffffffffffffffff16815260200190815260200160002060009054906101000a900460ff16905092915050565b60007f01ffc9a7000000000000000000000000000000000000000000000000000000007bffffffffffffffffffffffffffffffffffffffffffffffffffffffff1916827bffffffffffffffffffffffffffffffffffffffffffffffffffffffff1916149050919050565b6116f981611e0e565b611738576040517f08c379a000000000000000000000000000000000000000000000000000000000815260040161172f9061303a565b60405180910390fd5b50565b600033905090565b816004600083815260200190815260200160002060006101000a81548173ffffffffffffffffffffffffffffffffffffffff021916908373ffffffffffffffffffffffffffffffffffffffff160217905550808273ffffffffffffffffffffffffffffffffffffffff166117b683610b0d565b73ffffffffffffffffffffffffffffffffffffffff167f8c5be1e5ebec7d5bd14f71427d1e84f3dd0314c0f7b2291e5b200ac8c7c3b92560405160405180910390a45050565b60008061180883610b0d565b90508073ffffffffffffffffffffffffffffffffffffffff168473ffffffffffffffffffffffffffffffffffffffff16148061184a575061184981856115f2565b5b8061188857508373ffffffffffffffffffffffffffffffffffffffff16611870846106ab565b73ffffffffffffffffffffffffffffffffffffffff16145b91505092915050565b8273ffffffffffffffffffffffffffffffffffffffff166118b182610b0d565b73ffffffffffffffffffffffffffffffffffffffff1614611907576040517f08c379a00000000000000000000000000000000000000000000000000000000081526004016118fe90613626565b60405180910390fd5b600073ffffffffffffffffffffffffffffffffffffffff168273ffffffffffffffffffffffffffffffffffffffff1603611976576040517f08c379a000000000000000000000000000000000000000000000000000000000815260040161196d906136b8565b60405180910390fd5b6119838383836001611e4f565b8273ffffffffffffffffffffffffffffffffffffffff166119a382610b0d565b73ffffffffffffffffffffffffffffffffffffffff16146119f9576040517f08c379a00000000000000000000000000000000000000000000000000000000081526004016119f090613626565b60405180910390fd5b6004600082815260200190815260200160002060006101000a81549073ffffffffffffffffffffffffffffffffffffffff02191690556001600360008573ffffffffffffffffffffffffffffffffffffffff1673ffffffffffffffffffffffffffffffffffffffff168152602001908152602001600020600082825403925050819055506001600360008473ffffffffffffffffffffffffffffffffffffffff1673ffffffffffffffffffffffffffffffffffffffff16815260200190815260200160002060008282540192505081905550816002600083815260200190815260200160002060006101000a81548173ffffffffffffffffffffffffffffffffffffffff021916908373ffffffffffffffffffffffffffffffffffffffff160217905550808273ffffffffffffffffffffffffffffffffffffffff168473ffffffffffffffffffffffffffffffffffffffff167fddf252ad1be2c89b69c2b068fc378daa952ba7f163c4a11628f55a4df523b3ef60405160405180910390a4611b858383836001611e55565b505050565b60006002600083815260200190815260200160002060009054906101000a900473ffffffffffffffffffffffffffffffffffffffff169050919050565b8173ffffffffffffffffffffffffffffffffffffffff168373ffffffffffffffffffffffffffffffffffffffff1603611c35576040517f08c379a0000000000000000000000000000000000000000000000000000000008152600401611c2c90613724565b60405180910390fd5b80600560008573ffffffffffffffffffffffffffffffffffffffff1673ffffffffffffffffffffffffffffffffffffffff16815260200190815260200160002060008473ffffffffffffffffffffffffffffffffffffffff1673ffffffffffffffffffffffffffffffffffffffff16815260200190815260200160002060006101000a81548160ff0219169083151502179055508173ffffffffffffffffffffffffffffffffffffffff168373ffffffffffffffffffffffffffffffffffffffff167f17307eab39ab6107e8899845ad3d59bd9653f200f220920489ca2b5937696c3183604051611d26919061234f565b60405180910390a3505050565b611d3e848484611891565b611d4a84848484611e5b565b611d89576040517f08c379a0000000000000000000000000000000000000000000000000000000008152600401611d80906137b6565b60405180910390fd5b50505050565b606060405180602001604052806000815250905090565b6060611db1826116f0565b6000611dbb611d8f565b90506000815111611ddb5760405180602001604052806000815250611e06565b80611de584611fe2565b604051602001611df6929190613524565b6040516020818303038152906040525b915050919050565b60008073ffffffffffffffffffffffffffffffffffffffff16611e3083611b8a565b73ffffffffffffffffffffffffffffffffffffffff1614159050919050565b50505050565b50505050565b6000611e7c8473ffffffffffffffffffffffffffffffffffffffff166120b0565b15611fd5578373ffffffffffffffffffffffffffffffffffffffff1663150b7a02611ea561173b565b8786866040518563ffffffff1660e01b8152600401611ec7949392919061382b565b6020604051808303816000875af1925050508015611f0357506040513d601f19601f82011682018060405250810190611f00919061388c565b60015b611f85573d8060008114611f33576040519150601f19603f3d011682016040523d82523d6000602084013e611f38565b606091505b506000815103611f7d576040517f08c379a0000000000000000000000000000000000000000000000000000000008152600401611f74906137b6565b60405180910390fd5b805181602001fd5b63150b7a0260e01b7bffffffffffffffffffffffffffffffffffffffffffffffffffffffff1916817bffffffffffffffffffffffffffffffffffffffffffffffffffffffff191614915050611fda565b600190505b949350505050565b606060006001611ff1846120d3565b01905060008167ffffffffffffffff8111156120105761200f6128ba565b5b6040519080825280601f01601f1916602001820160405280156120425781602001600182028036833780820191505090505b509050600082602001820190505b6001156120a5578080600190039150507f3031323334353637383961626364656600000000000000000000000000000000600a86061a8153600a8581612099576120986138b9565b5b04945060008503612050575b819350505050919050565b6000808273ffffffffffffffffffffffffffffffffffffffff163b119050919050565b600080600090507a184f03e93ff9f4daa797ed6e38ed64bf6a1f0100000000000000008310612131577a184f03e93ff9f4daa797ed6e38ed64bf6a1f0100000000000000008381612127576121266138b9565b5b0492506040810190505b6d04ee2d6d415b85acef8100000000831061216e576d04ee2d6d415b85acef81000000008381612164576121636138b9565b5b0492506020810190505b662386f26fc10000831061219d57662386f26fc100008381612193576121926138b9565b5b0492506010810190505b6305f5e10083106121c6576305f5e10083816121bc576121bb6138b9565b5b0492506008810190505b61271083106121eb5761271083816121e1576121e06138b9565b5b0492506004810190505b6064831061220e5760648381612204576122036138b9565b5b0492506002810190505b600a831061221d576001810190505b80915050919050565b60405180610100016040528060008152602001606081526020016060815260200160008152602001600015158152602001600015158152602001600073ffffffffffffffffffffffffffffffffffffffff168152602001600073ffffffffffffffffffffffffffffffffffffffff1681525090565b6000604051905090565b600080fd5b600080fd5b60007fffffffff0000000000000000000000000000000000000000000000000000000082169050919050565b6122e4816122af565b81146122ef57600080fd5b50565b600081359050612301816122db565b92915050565b60006020828403121561231d5761231c6122a5565b5b600061232b848285016122f2565b91505092915050565b60008115159050919050565b61234981612334565b82525050565b60006020820190506123646000830184612340565b92915050565b600081519050919050565b600082825260208201905092915050565b60005b838110156123a4578082015181840152602081019050612389565b60008484015250505050565b6000601f19601f8301169050919050565b60006123cc8261236a565b6123d68185612375565b93506123e6818560208601612386565b6123ef816123b0565b840191505092915050565b6000602082019050818103600083015261241481846123c1565b905092915050565b6000819050919050565b61242f8161241c565b811461243a57600080fd5b50565b60008135905061244c81612426565b92915050565b600060208284031215612468576124676122a5565b5b60006124768482850161243d565b91505092915050565b600073ffffffffffffffffffffffffffffffffffffffff82169050919050565b60006124aa8261247f565b9050919050565b6124ba8161249f565b82525050565b60006020820190506124d560008301846124b1565b92915050565b6124e48161249f565b81146124ef57600080fd5b50565b600081359050612501816124db565b92915050565b6000806040838503121561251e5761251d6122a5565b5b600061252c858286016124f2565b925050602061253d8582860161243d565b9150509250929050565b6000806000606084860312156125605761255f6122a5565b5b600061256e868287016124f2565b935050602061257f868287016124f2565b92505060406125908682870161243d565b9150509250925092565b6125a38161241c565b82525050565b60006020820190506125be600083018461259a565b92915050565b60006125cf8261247f565b9050919050565b6125df816125c4565b82525050565b6000610100820190506125fb600083018b61259a565b818103602083015261260d818a6123c1565b9050818103604083015261262181896123c1565b9050612630606083018861259a565b61263d6080830187612340565b61264a60a0830186612340565b61265760c08301856125d6565b61266460e08301846125d6565b9998505050505050505050565b600081519050919050565b600082825260208201905092915050565b6000819050602082019050919050565b6126a68161241c565b82525050565b600082825260208201905092915050565b60006126c88261236a565b6126d281856126ac565b93506126e2818560208601612386565b6126eb816123b0565b840191505092915050565b6126ff81612334565b82525050565b61270e816125c4565b82525050565b60006101008301600083015161272d600086018261269d565b506020830151848203602086015261274582826126bd565b9150506040830151848203604086015261275f82826126bd565b9150506060830151612774606086018261269d565b50608083015161278760808601826126f6565b5060a083015161279a60a08601826126f6565b5060c08301516127ad60c0860182612705565b5060e08301516127c060e0860182612705565b508091505092915050565b60006127d78383612714565b905092915050565b6000602082019050919050565b60006127f782612671565b612801818561267c565b9350836020820285016128138561268d565b8060005b8581101561284f578484038952815161283085826127cb565b945061283b836127df565b925060208a01995050600181019050612817565b50829750879550505050505092915050565b6000602082019050818103600083015261287b81846127ec565b905092915050565b600060208284031215612899576128986122a5565b5b60006128a7848285016124f2565b91505092915050565b600080fd5b600080fd5b7f4e487b7100000000000000000000000000000000000000000000000000000000600052604160045260246000fd5b6128f2826123b0565b810181811067ffffffffffffffff82111715612911576129106128ba565b5b80604052505050565b600061292461229b565b905061293082826128e9565b919050565b600067ffffffffffffffff8211156129505761294f6128ba565b5b612959826123b0565b9050602081019050919050565b82818337600083830152505050565b600061298861298384612935565b61291a565b9050828152602081018484840111156129a4576129a36128b5565b5b6129af848285612966565b509392505050565b600082601f8301126129cc576129cb6128b0565b5b81356129dc848260208601612975565b91505092915050565b600080604083850312156129fc576129fb6122a5565b5b600083013567ffffffffffffffff811115612a1a57612a196122aa565b5b612a26858286016129b7565b9250506020612a378582860161243d565b9150509250929050565b600061010083016000830151612a5a600086018261269d565b5060208301518482036020860152612a7282826126bd565b91505060408301518482036040860152612a8c82826126bd565b9150506060830151612aa1606086018261269d565b506080830151612ab460808601826126f6565b5060a0830151612ac760a08601826126f6565b5060c0830151612ada60c0860182612705565b5060e0830151612aed60e0860182612705565b508091505092915050565b60006020820190508181036000830152612b128184612a41565b905092915050565b612b2381612334565b8114612b2e57600080fd5b50565b600081359050612b4081612b1a565b92915050565b60008060408385031215612b5d57612b5c6122a5565b5b6000612b6b858286016124f2565b9250506020612b7c85828601612b31565b9150509250929050565b600067ffffffffffffffff821115612ba157612ba06128ba565b5b612baa826123b0565b9050602081019050919050565b6000612bca612bc584612b86565b61291a565b905082815260208101848484011115612be657612be56128b5565b5b612bf1848285612966565b509392505050565b600082601f830112612c0e57612c0d6128b0565b5b8135612c1e848260208601612bb7565b91505092915050565b60008060008060808587031215612c4157612c406122a5565b5b6000612c4f878288016124f2565b9450506020612c60878288016124f2565b9350506040612c718782880161243d565b925050606085013567ffffffffffffffff811115612c9257612c916122aa565b5b612c9e87828801612bf9565b91505092959194509250565b60008060408385031215612cc157612cc06122a5565b5b6000612ccf8582860161243d565b925050602083013567ffffffffffffffff811115612cf057612cef6122aa565b5b612cfc858286016129b7565b9150509250929050565b60008060408385031215612d1d57612d1c6122a5565b5b6000612d2b858286016124f2565b9250506020612d3c858286016124f2565b9150509250929050565b7f4e487b7100000000000000000000000000000000000000000000000000000000600052602260045260246000fd5b60006002820490506001821680612d8d57607f821691505b602082108103612da057612d9f612d46565b5b50919050565b7f4552433732313a20617070726f76616c20746f2063757272656e74206f776e6560008201527f7200000000000000000000000000000000000000000000000000000000000000602082015250565b6000612e02602183612375565b9150612e0d82612da6565b604082019050919050565b60006020820190508181036000830152612e3181612df5565b9050919050565b7f4552433732313a20617070726f76652063616c6c6572206973206e6f7420746f60008201527f6b656e206f776e6572206f7220617070726f76656420666f7220616c6c000000602082015250565b6000612e94603d83612375565b9150612e9f82612e38565b604082019050919050565b60006020820190508181036000830152612ec381612e87565b9050919050565b7f596f75722070726f70657274792068617320616c7265616479206265656e207360008201527f6f6c640000000000000000000000000000000000000000000000000000000000602082015250565b6000612f26602383612375565b9150612f3182612eca565b604082019050919050565b60006020820190508181036000830152612f5581612f19565b9050919050565b7f4552433732313a2063616c6c6572206973206e6f7420746f6b656e206f776e6560008201527f72206f7220617070726f76656400000000000000000000000000000000000000602082015250565b6000612fb8602d83612375565b9150612fc382612f5c565b604082019050919050565b60006020820190508181036000830152612fe781612fab565b9050919050565b7f4552433732313a20696e76616c696420746f6b656e2049440000000000000000600082015250565b6000613024601883612375565b915061302f82612fee565b602082019050919050565b6000602082019050818103600083015261305381613017565b9050919050565b7f4e487b7100000000000000000000000000000000000000000000000000000000600052603260045260246000fd5b7f4e487b7100000000000000000000000000000000000000000000000000000000600052601160045260246000fd5b60006130c38261241c565b91507fffffffffffffffffffffffffffffffffffffffffffffffffffffffffffffffff82036130f5576130f4613089565b5b600182019050919050565b7f4552433732313a2061646472657373207a65726f206973206e6f74206120766160008201527f6c6964206f776e65720000000000000000000000000000000000000000000000602082015250565b600061315c602983612375565b915061316782613100565b604082019050919050565b6000602082019050818103600083015261318b8161314f565b9050919050565b7f53656e6420746865206c697374696e6720707269636500000000000000000000600082015250565b60006131c8601683612375565b91506131d382613192565b602082019050919050565b600060208201905081810360008301526131f7816131bb565b9050919050565b60008190508160005260206000209050919050565b60006020601f8301049050919050565b600082821b905092915050565b6000600883026132607fffffffffffffffffffffffffffffffffffffffffffffffffffffffffffffffff82613223565b61326a8683613223565b95508019841693508086168417925050509392505050565b6000819050919050565b60006132a76132a261329d8461241c565b613282565b61241c565b9050919050565b6000819050919050565b6132c18361328c565b6132d56132cd826132ae565b848454613230565b825550505050565b600090565b6132ea6132dd565b6132f58184846132b8565b505050565b5b818110156133195761330e6000826132e2565b6001810190506132fb565b5050565b601f82111561335e5761332f816131fe565b61333884613213565b81016020851015613347578190505b61335b61335385613213565b8301826132fa565b50505b505050565b600082821c905092915050565b600061338160001984600802613363565b1980831691505092915050565b600061339a8383613370565b9150826002028217905092915050565b6133b38261236a565b67ffffffffffffffff8111156133cc576133cb6128ba565b5b6133d68254612d75565b6133e182828561331d565b600060209050601f8311600181146134145760008415613402578287015190505b61340c858261338e565b865550613474565b601f198416613422866131fe565b60005b8281101561344a57848901518255600182019150602085019450602081019050613425565b868310156134675784890151613463601f891682613370565b8355505b6001600288020188555050505b505050505050565b7f4964206e6f742070726573656e74000000000000000000000000000000000000600082015250565b60006134b2600e83612375565b91506134bd8261347c565b602082019050919050565b600060208201905081810360008301526134e1816134a5565b9050919050565b600081905092915050565b60006134fe8261236a565b61350881856134e8565b9350613518818560208601612386565b80840191505092915050565b600061353082856134f3565b915061353c82846134f3565b91508190509392505050565b7f596f75206861766520616c7265616479206265656e2076657269666965640000600082015250565b600061357e601e83612375565b915061358982613548565b602082019050919050565b600060208201905081810360008301526135ad81613571565b9050919050565b7f4552433732313a207472616e736665722066726f6d20696e636f72726563742060008201527f6f776e6572000000000000000000000000000000000000000000000000000000602082015250565b6000613610602583612375565b915061361b826135b4565b604082019050919050565b6000602082019050818103600083015261363f81613603565b9050919050565b7f4552433732313a207472616e7366657220746f20746865207a65726f2061646460008201527f7265737300000000000000000000000000000000000000000000000000000000602082015250565b60006136a2602483612375565b91506136ad82613646565b604082019050919050565b600060208201905081810360008301526136d181613695565b9050919050565b7f4552433732313a20617070726f766520746f2063616c6c657200000000000000600082015250565b600061370e601983612375565b9150613719826136d8565b602082019050919050565b6000602082019050818103600083015261373d81613701565b9050919050565b7f4552433732313a207472616e7366657220746f206e6f6e20455243373231526560008201527f63656976657220696d706c656d656e7465720000000000000000000000000000602082015250565b60006137a0603283612375565b91506137ab82613744565b604082019050919050565b600060208201905081810360008301526137cf81613793565b9050919050565b600081519050919050565b600082825260208201905092915050565b60006137fd826137d6565b61380781856137e1565b9350613817818560208601612386565b613820816123b0565b840191505092915050565b600060808201905061384060008301876124b1565b61384d60208301866124b1565b61385a604083018561259a565b818103606083015261386c81846137f2565b905095945050505050565b600081519050613886816122db565b92915050565b6000602082840312156138a2576138a16122a5565b5b60006138b084828501613877565b91505092915050565b7f4e487b7100000000000000000000000000000000000000000000000000000000600052601260045260246000fdfea264697066735822122031e8d177e22eb4d983f516eb53879e9d4b09ec295dcd9930f6ebfc6e3567126b64736f6c63430008110033",
  "linkReferences": {},
  "deployedLinkReferences": {}
}