{
  "_format": "hh-sol-artifact-1",
  "contractName": "Zwillo",
  "sourceName": "contracts/Zwillo.sol",
  "abi": [
    {
      "inputs": [
        {
          "internalType": "uint256",
          "name": "_price",
          "type": "uint256"
        }
      ],
      "stateMutability": "nonpayable",
      "type": "constructor"
    },
    {
      "anonymous": false,
      "inputs": [
        {
          "indexed": true,
          "internalType": "address",
          "name": "owner",
          "type": "address"
        },
        {
          "indexed": true,
          "internalType": "address",
          "name": "approved",
          "type": "address"
        },
        {
          "indexed": true,
          "internalType": "uint256",
          "name": "tokenId",
          "type": "uint256"
        }
      ],
      "name": "Approval",
      "type": "event"
    },
    {
      "anonymous": false,
      "inputs": [
        {
          "indexed": true,
          "internalType": "address",
          "name": "owner",
          "type": "address"
        },
        {
          "indexed": true,
          "internalType": "address",
          "name": "operator",
          "type": "address"
        },
        {
          "indexed": false,
          "internalType": "bool",
          "name": "approved",
          "type": "bool"
        }
      ],
      "name": "ApprovalForAll",
      "type": "event"
    },
    {
      "anonymous": false,
      "inputs": [
        {
          "indexed": true,
          "internalType": "address",
          "name": "from",
          "type": "address"
        },
        {
          "indexed": true,
          "internalType": "address",
          "name": "to",
          "type": "address"
        },
        {
          "indexed": true,
          "internalType": "uint256",
          "name": "tokenId",
          "type": "uint256"
        }
      ],
      "name": "Transfer",
      "type": "event"
    },
    {
      "inputs": [
        {
          "internalType": "address",
          "name": "to",
          "type": "address"
        },
        {
          "internalType": "uint256",
          "name": "tokenId",
          "type": "uint256"
        }
      ],
      "name": "approve",
      "outputs": [],
      "stateMutability": "nonpayable",
      "type": "function"
    },
    {
      "inputs": [
        {
          "internalType": "address",
          "name": "owner",
          "type": "address"
        }
      ],
      "name": "balanceOf",
      "outputs": [
        {
          "internalType": "uint256",
          "name": "",
          "type": "uint256"
        }
      ],
      "stateMutability": "view",
      "type": "function"
    },
    {
      "inputs": [
        {
          "internalType": "uint256",
          "name": "_id",
          "type": "uint256"
        }
      ],
      "name": "buyAsset",
      "outputs": [],
      "stateMutability": "payable",
      "type": "function"
    },
    {
      "inputs": [
        {
          "internalType": "uint256",
          "name": "tokenId",
          "type": "uint256"
        }
      ],
      "name": "getApproved",
      "outputs": [
        {
          "internalType": "address",
          "name": "",
          "type": "address"
        }
      ],
      "stateMutability": "view",
      "type": "function"
    },
    {
      "inputs": [
        {
          "internalType": "uint256",
          "name": "_id",
          "type": "uint256"
        }
      ],
      "name": "getAssetDetails",
      "outputs": [
        {
          "components": [
            {
              "internalType": "uint256",
              "name": "id",
              "type": "uint256"
            },
            {
              "internalType": "string",
              "name": "imageURL",
              "type": "string"
            },
            {
              "internalType": "string",
              "name": "owershipURL",
              "type": "string"
            },
            {
              "internalType": "uint256",
              "name": "amt",
              "type": "uint256"
            },
            {
              "internalType": "bool",
              "name": "isVerfied",
              "type": "bool"
            },
            {
              "internalType": "bool",
              "name": "isSold",
              "type": "bool"
            },
            {
              "internalType": "address payable",
              "name": "seller",
              "type": "address"
            },
            {
              "internalType": "address payable",
              "name": "owner",
              "type": "address"
            }
          ],
          "internalType": "struct Zwillo.Property",
          "name": "",
          "type": "tuple"
        }
      ],
      "stateMutability": "view",
      "type": "function"
    },
    {
      "inputs": [],
      "name": "getMyAssets",
      "outputs": [
        {
          "components": [
            {
              "internalType": "uint256",
              "name": "id",
              "type": "uint256"
            },
            {
              "internalType": "string",
              "name": "imageURL",
              "type": "string"
            },
            {
              "internalType": "string",
              "name": "owershipURL",
              "type": "string"
            },
            {
              "internalType": "uint256",
              "name": "amt",
              "type": "uint256"
            },
            {
              "internalType": "bool",
              "name": "isVerfied",
              "type": "bool"
            },
            {
              "internalType": "bool",
              "name": "isSold",
              "type": "bool"
            },
            {
              "internalType": "address payable",
              "name": "seller",
              "type": "address"
            },
            {
              "internalType": "address payable",
              "name": "owner",
              "type": "address"
            }
          ],
          "internalType": "struct Zwillo.Property[]",
          "name": "",
          "type": "tuple[]"
        }
      ],
      "stateMutability": "view",
      "type": "function"
    },
    {
      "inputs": [
        {
          "internalType": "address",
          "name": "owner",
          "type": "address"
        },
        {
          "internalType": "address",
          "name": "operator",
          "type": "address"
        }
      ],
      "name": "isApprovedForAll",
      "outputs": [
        {
          "internalType": "bool",
          "name": "",
          "type": "bool"
        }
      ],
      "stateMutability": "view",
      "type": "function"
    },
    {
      "inputs": [
        {
          "internalType": "string",
          "name": "_imageURL",
          "type": "string"
        },
        {
          "internalType": "uint256",
          "name": "_amt",
          "type": "uint256"
        }
      ],
      "name": "listAsset",
      "outputs": [
        {
          "internalType": "uint256",
          "name": "",
          "type": "uint256"
        }
      ],
      "stateMutability": "payable",
      "type": "function"
    },
    {
      "inputs": [],
      "name": "listedItems",
      "outputs": [
        {
          "internalType": "uint256",
          "name": "",
          "type": "uint256"
        }
      ],
      "stateMutability": "view",
      "type": "function"
    },
    {
      "inputs": [],
      "name": "listingPrice",
      "outputs": [
        {
          "internalType": "uint256",
          "name": "",
          "type": "uint256"
        }
      ],
      "stateMutability": "view",
      "type": "function"
    },
    {
      "inputs": [],
      "name": "name",
      "outputs": [
        {
          "internalType": "string",
          "name": "",
          "type": "string"
        }
      ],
      "stateMutability": "view",
      "type": "function"
    },
    {
      "inputs": [
        {
          "internalType": "uint256",
          "name": "tokenId",
          "type": "uint256"
        }
      ],
      "name": "ownerOf",
      "outputs": [
        {
          "internalType": "address",
          "name": "",
          "type": "address"
        }
      ],
      "stateMutability": "view",
      "type": "function"
    },
    {
      "inputs": [
        {
          "internalType": "uint256",
          "name": "",
          "type": "uint256"
        }
      ],
      "name": "property",
      "outputs": [
        {
          "internalType": "uint256",
          "name": "id",
          "type": "uint256"
        },
        {
          "internalType": "string",
          "name": "imageURL",
          "type": "string"
        },
        {
          "internalType": "string",
          "name": "owershipURL",
          "type": "string"
        },
        {
          "internalType": "uint256",
          "name": "amt",
          "type": "uint256"
        },
        {
          "internalType": "bool",
          "name": "isVerfied",
          "type": "bool"
        },
        {
          "internalType": "bool",
          "name": "isSold",
          "type": "bool"
        },
        {
          "internalType": "address payable",
          "name": "seller",
          "type": "address"
        },
        {
          "internalType": "address payable",
          "name": "owner",
          "type": "address"
        }
      ],
      "stateMutability": "view",
      "type": "function"
    },
    {
      "inputs": [
        {
          "internalType": "address",
          "name": "from",
          "type": "address"
        },
        {
          "internalType": "address",
          "name": "to",
          "type": "address"
        },
        {
          "internalType": "uint256",
          "name": "tokenId",
          "type": "uint256"
        }
      ],
      "name": "safeTransferFrom",
      "outputs": [],
      "stateMutability": "nonpayable",
      "type": "function"
    },
    {
      "inputs": [
        {
          "internalType": "address",
          "name": "from",
          "type": "address"
        },
        {
          "internalType": "address",
          "name": "to",
          "type": "address"
        },
        {
          "internalType": "uint256",
          "name": "tokenId",
          "type": "uint256"
        },
        {
          "internalType": "bytes",
          "name": "data",
          "type": "bytes"
        }
      ],
      "name": "safeTransferFrom",
      "outputs": [],
      "stateMutability": "nonpayable",
      "type": "function"
    },
    {
      "inputs": [
        {
          "internalType": "address",
          "name": "operator",
          "type": "address"
        },
        {
          "internalType": "bool",
          "name": "approved",
          "type": "bool"
        }
      ],
      "name": "setApprovalForAll",
      "outputs": [],
      "stateMutability": "nonpayable",
      "type": "function"
    },
    {
      "inputs": [
        {
          "internalType": "bytes4",
          "name": "interfaceId",
          "type": "bytes4"
        }
      ],
      "name": "supportsInterface",
      "outputs": [
        {
          "internalType": "bool",
          "name": "",
          "type": "bool"
        }
      ],
      "stateMutability": "view",
      "type": "function"
    },
    {
      "inputs": [],
      "name": "symbol",
      "outputs": [
        {
          "internalType": "string",
          "name": "",
          "type": "string"
        }
      ],
      "stateMutability": "view",
      "type": "function"
    },
    {
      "inputs": [
        {
          "internalType": "uint256",
          "name": "tokenId",
          "type": "uint256"
        }
      ],
      "name": "tokenURI",
      "outputs": [
        {
          "internalType": "string",
          "name": "",
          "type": "string"
        }
      ],
      "stateMutability": "view",
      "type": "function"
    },
    {
      "inputs": [
        {
          "internalType": "address",
          "name": "from",
          "type": "address"
        },
        {
          "internalType": "address",
          "name": "to",
          "type": "address"
        },
        {
          "internalType": "uint256",
          "name": "tokenId",
          "type": "uint256"
        }
      ],
      "name": "transferFrom",
      "outputs": [],
      "stateMutability": "nonpayable",
      "type": "function"
    },
    {
      "inputs": [
        {
          "internalType": "uint256",
          "name": "_id",
          "type": "uint256"
        },
        {
          "internalType": "string",
          "name": "_owershipURL",
          "type": "string"
        }
      ],
      "name": "verfiy",
      "outputs": [],
      "stateMutability": "nonpayable",
      "type": "function"
    }
  ],
  "bytecode": "0x60806040523480156200001157600080fd5b5060405162003da538038062003da5833981810160405281019062000037919062000117565b6040518060400160405280600681526020017f5a77696c6c6f00000000000000000000000000000000000000000000000000008152506040518060400160405280600281526020017f5a570000000000000000000000000000000000000000000000000000000000008152508160009081620000b49190620003b9565b508060019081620000c69190620003b9565b5050508060088190555050620004a0565b600080fd5b6000819050919050565b620000f181620000dc565b8114620000fd57600080fd5b50565b6000815190506200011181620000e6565b92915050565b60006020828403121562000130576200012f620000d7565b5b6000620001408482850162000100565b91505092915050565b600081519050919050565b7f4e487b7100000000000000000000000000000000000000000000000000000000600052604160045260246000fd5b7f4e487b7100000000000000000000000000000000000000000000000000000000600052602260045260246000fd5b60006002820490506001821680620001cb57607f821691505b602082108103620001e157620001e062000183565b5b50919050565b60008190508160005260206000209050919050565b60006020601f8301049050919050565b600082821b905092915050565b6000600883026200024b7fffffffffffffffffffffffffffffffffffffffffffffffffffffffffffffffff826200020c565b6200025786836200020c565b95508019841693508086168417925050509392505050565b6000819050919050565b60006200029a620002946200028e84620000dc565b6200026f565b620000dc565b9050919050565b6000819050919050565b620002b68362000279565b620002ce620002c582620002a1565b84845462000219565b825550505050565b600090565b620002e5620002d6565b620002f2818484620002ab565b505050565b5b818110156200031a576200030e600082620002db565b600181019050620002f8565b5050565b601f82111562000369576200033381620001e7565b6200033e84620001fc565b810160208510156200034e578190505b620003666200035d85620001fc565b830182620002f7565b50505b505050565b600082821c905092915050565b60006200038e600019846008026200036e565b1980831691505092915050565b6000620003a983836200037b565b9150826002028217905092915050565b620003c48262000149565b67ffffffffffffffff811115620003e057620003df62000154565b5b620003ec8254620001b2565b620003f98282856200031e565b600060209050601f8311600181146200043157600084156200041c578287015190505b6200042885826200039b565b86555062000498565b601f1984166200044186620001e7565b60005b828110156200046b5784890151825560018201915060208501945060208101905062000444565b868310156200048b578489015162000487601f8916826200037b565b8355505b6001600288020188555050505b505050505050565b6138f580620004b06000396000f3fe60806040526004361061012a5760003560e01c80636352211e116100ab578063a22cb4651161006f578063a22cb46514610417578063b88d4fde14610440578063c78f19f914610469578063c87b56dd14610494578063cc8a42ad146104d1578063e985e9c5146104fa5761012a565b80636352211e1461030557806370a08231146103425780639163f2d91461037f57806395d89b41146103af578063a1f24b3d146103da5761012a565b806323b872dd116100f257806323b872dd146102195780632b5e0ba81461024257806330e1ad321461026d57806342842e0e146102b157806347002d1d146102da5761012a565b806301ffc9a71461012f57806306fdde031461016c578063081812fc14610197578063095ea7b3146101d4578063110d35b8146101fd575b600080fd5b34801561013b57600080fd5b50610156600480360381019061015191906122aa565b610537565b60405161016391906122f2565b60405180910390f35b34801561017857600080fd5b50610181610619565b60405161018e919061239d565b60405180910390f35b3480156101a357600080fd5b506101be60048036038101906101b991906123f5565b6106ab565b6040516101cb9190612463565b60405180910390f35b3480156101e057600080fd5b506101fb60048036038101906101f691906124aa565b6106f1565b005b610217600480360381019061021291906123f5565b610808565b005b34801561022557600080fd5b50610240600480360381019061023b91906124ea565b6108e0565b005b34801561024e57600080fd5b50610257610940565b604051610264919061254c565b60405180910390f35b34801561027957600080fd5b50610294600480360381019061028f91906123f5565b610946565b6040516102a8989796959493929190612588565b60405180910390f35b3480156102bd57600080fd5b506102d860048036038101906102d391906124ea565b610af8565b005b3480156102e657600080fd5b506102ef610b18565b6040516102fc9190612804565b60405180910390f35b34801561031157600080fd5b5061032c600480360381019061032791906123f5565b610de7565b6040516103399190612463565b60405180910390f35b34801561034e57600080fd5b5061036960048036038101906103649190612826565b610e6d565b604051610376919061254c565b60405180910390f35b61039960048036038101906103949190612988565b610f24565b6040516103a6919061254c565b60405180910390f35b3480156103bb57600080fd5b506103c4611049565b6040516103d1919061239d565b60405180910390f35b3480156103e657600080fd5b5061040160048036038101906103fc91906123f5565b6110db565b60405161040e9190612a9b565b60405180910390f35b34801561042357600080fd5b5061043e60048036038101906104399190612ae9565b611368565b005b34801561044c57600080fd5b5061046760048036038101906104629190612bca565b61137e565b005b34801561047557600080fd5b5061047e6113e0565b60405161048b919061254c565b60405180910390f35b3480156104a057600080fd5b506104bb60048036038101906104b691906123f5565b6113e6565b6040516104c8919061239d565b60405180910390f35b3480156104dd57600080fd5b506104f860048036038101906104f39190612c4d565b6114f8565b005b34801561050657600080fd5b50610521600480360381019061051c9190612ca9565b611595565b60405161052e91906122f2565b60405180910390f35b60007f80ac58cd000000000000000000000000000000000000000000000000000000007bffffffffffffffffffffffffffffffffffffffffffffffffffffffff1916827bffffffffffffffffffffffffffffffffffffffffffffffffffffffff1916148061060257507f5b5e139f000000000000000000000000000000000000000000000000000000007bffffffffffffffffffffffffffffffffffffffffffffffffffffffff1916827bffffffffffffffffffffffffffffffffffffffffffffffffffffffff1916145b80610612575061061182611629565b5b9050919050565b60606000805461062890612d18565b80601f016020809104026020016040519081016040528092919081815260200182805461065490612d18565b80156106a15780601f10610676576101008083540402835291602001916106a1565b820191906000526020600020905b81548152906001019060200180831161068457829003601f168201915b5050505050905090565b60006106b682611693565b6004600083815260200190815260200160002060009054906101000a900473ffffffffffffffffffffffffffffffffffffffff169050919050565b60006106fc82610de7565b90508073ffffffffffffffffffffffffffffffffffffffff168373ffffffffffffffffffffffffffffffffffffffff160361076c576040517f08c379a000000000000000000000000000000000000000000000000000000000815260040161076390612dbb565b60405180910390fd5b8073ffffffffffffffffffffffffffffffffffffffff1661078b6116de565b73ffffffffffffffffffffffffffffffffffffffff1614806107ba57506107b9816107b46116de565b611595565b5b6107f9576040517f08c379a00000000000000000000000000000000000000000000000000000000081526004016107f090612e4d565b60405180910390fd5b61080383836116e6565b505050565b60006009600083815260200190815260200160002090508060040160019054906101000a900460ff1615610871576040517f08c379a000000000000000000000000000000000000000000000000000000000815260040161086890612edf565b60405180910390fd5b338160050160006101000a81548173ffffffffffffffffffffffffffffffffffffffff021916908373ffffffffffffffffffffffffffffffffffffffff16021790555060018160040160016101000a81548160ff0219169083151502179055506108dc30338461179f565b5050565b6108f16108eb6116de565b82611a98565b610930576040517f08c379a000000000000000000000000000000000000000000000000000000000815260040161092790612f71565b60405180910390fd5b61093b83838361179f565b505050565b60075481565b600960205280600052604060002060009150905080600001549080600101805461096f90612d18565b80601f016020809104026020016040519081016040528092919081815260200182805461099b90612d18565b80156109e85780601f106109bd576101008083540402835291602001916109e8565b820191906000526020600020905b8154815290600101906020018083116109cb57829003601f168201915b5050505050908060020180546109fd90612d18565b80601f0160208091040260200160405190810160405280929190818152602001828054610a2990612d18565b8015610a765780601f10610a4b57610100808354040283529160200191610a76565b820191906000526020600020905b815481529060010190602001808311610a5957829003601f168201915b5050505050908060030154908060040160009054906101000a900460ff16908060040160019054906101000a900460ff16908060040160029054906101000a900473ffffffffffffffffffffffffffffffffffffffff16908060050160009054906101000a900473ffffffffffffffffffffffffffffffffffffffff16905088565b610b138383836040518060200160405280600081525061137e565b505050565b6060806000600190505b6007548111610ddf576000600960008381526020019081526020016000206040518061010001604052908160008201548152602001600182018054610b6690612d18565b80601f0160208091040260200160405190810160405280929190818152602001828054610b9290612d18565b8015610bdf5780601f10610bb457610100808354040283529160200191610bdf565b820191906000526020600020905b815481529060010190602001808311610bc257829003601f168201915b50505050508152602001600282018054610bf890612d18565b80601f0160208091040260200160405190810160405280929190818152602001828054610c2490612d18565b8015610c715780601f10610c4657610100808354040283529160200191610c71565b820191906000526020600020905b815481529060010190602001808311610c5457829003601f168201915b50505050508152602001600382015481526020016004820160009054906101000a900460ff161515151581526020016004820160019054906101000a900460ff161515151581526020016004820160029054906101000a900473ffffffffffffffffffffffffffffffffffffffff1673ffffffffffffffffffffffffffffffffffffffff1673ffffffffffffffffffffffffffffffffffffffff1681526020016005820160009054906101000a900473ffffffffffffffffffffffffffffffffffffffff1673ffffffffffffffffffffffffffffffffffffffff1673ffffffffffffffffffffffffffffffffffffffff168152505090503373ffffffffffffffffffffffffffffffffffffffff168160e0015173ffffffffffffffffffffffffffffffffffffffff1603610dcb578083600184610dae9190612fc0565b81518110610dbf57610dbe612ff4565b5b60200260200101819052505b508080610dd790613023565b915050610b22565b508091505090565b600080610df383611b2d565b9050600073ffffffffffffffffffffffffffffffffffffffff168173ffffffffffffffffffffffffffffffffffffffff1603610e64576040517f08c379a0000000000000000000000000000000000000000000000000000000008152600401610e5b906130b7565b60405180910390fd5b80915050919050565b60008073ffffffffffffffffffffffffffffffffffffffff168273ffffffffffffffffffffffffffffffffffffffff1603610edd576040517f08c379a0000000000000000000000000000000000000000000000000000000008152600401610ed490613149565b60405180910390fd5b600360008373ffffffffffffffffffffffffffffffffffffffff1673ffffffffffffffffffffffffffffffffffffffff168152602001908152602001600020549050919050565b6000600854341015610f6b576040517f08c379a0000000000000000000000000000000000000000000000000000000008152600401610f62906131b5565b60405180910390fd5b60076000815480929190610f7e90613023565b91905055506000600960006007548152602001908152602001600020905083816001019081610fad9190613381565b50828160030181905550338160050160006101000a81548173ffffffffffffffffffffffffffffffffffffffff021916908373ffffffffffffffffffffffffffffffffffffffff160217905550308160040160026101000a81548173ffffffffffffffffffffffffffffffffffffffff021916908373ffffffffffffffffffffffffffffffffffffffff16021790555060075491505092915050565b60606001805461105890612d18565b80601f016020809104026020016040519081016040528092919081815260200182805461108490612d18565b80156110d15780601f106110a6576101008083540402835291602001916110d1565b820191906000526020600020905b8154815290600101906020018083116110b457829003601f168201915b5050505050905090565b6110e36121c9565b600754821115611128576040517f08c379a000000000000000000000000000000000000000000000000000000000815260040161111f9061349f565b60405180910390fd5b60096000838152602001908152602001600020604051806101000160405290816000820154815260200160018201805461116190612d18565b80601f016020809104026020016040519081016040528092919081815260200182805461118d90612d18565b80156111da5780601f106111af576101008083540402835291602001916111da565b820191906000526020600020905b8154815290600101906020018083116111bd57829003601f168201915b505050505081526020016002820180546111f390612d18565b80601f016020809104026020016040519081016040528092919081815260200182805461121f90612d18565b801561126c5780601f106112415761010080835404028352916020019161126c565b820191906000526020600020905b81548152906001019060200180831161124f57829003601f168201915b50505050508152602001600382015481526020016004820160009054906101000a900460ff161515151581526020016004820160019054906101000a900460ff161515151581526020016004820160029054906101000a900473ffffffffffffffffffffffffffffffffffffffff1673ffffffffffffffffffffffffffffffffffffffff1673ffffffffffffffffffffffffffffffffffffffff1681526020016005820160009054906101000a900473ffffffffffffffffffffffffffffffffffffffff1673ffffffffffffffffffffffffffffffffffffffff1673ffffffffffffffffffffffffffffffffffffffff16815250509050919050565b61137a6113736116de565b8383611b6a565b5050565b61138f6113896116de565b83611a98565b6113ce576040517f08c379a00000000000000000000000000000000000000000000000000000000081526004016113c590612f71565b60405180910390fd5b6113da84848484611cd6565b50505050565b60085481565b60606113f182611693565b600060066000848152602001908152602001600020805461141190612d18565b80601f016020809104026020016040519081016040528092919081815260200182805461143d90612d18565b801561148a5780601f1061145f5761010080835404028352916020019161148a565b820191906000526020600020905b81548152906001019060200180831161146d57829003601f168201915b50505050509050600061149b611d32565b905060008151036114b05781925050506114f3565b6000825111156114e55780826040516020016114cd9291906134fb565b604051602081830303815290604052925050506114f3565b6114ee84611d49565b925050505b919050565b60006009600084815260200190815260200160002090508060040160009054906101000a900460ff1615611561576040517f08c379a00000000000000000000000000000000000000000000000000000000081526004016115589061356b565b60405180910390fd5b60018160040160006101000a81548160ff0219169083151502179055508181600201908161158f9190613381565b50505050565b6000600560008473ffffffffffffffffffffffffffffffffffffffff1673ffffffffffffffffffffffffffffffffffffffff16815260200190815260200160002060008373ffffffffffffffffffffffffffffffffffffffff1673ffffffffffffffffffffffffffffffffffffffff16815260200190815260200160002060009054906101000a900460ff16905092915050565b60007f01ffc9a7000000000000000000000000000000000000000000000000000000007bffffffffffffffffffffffffffffffffffffffffffffffffffffffff1916827bffffffffffffffffffffffffffffffffffffffffffffffffffffffff1916149050919050565b61169c81611db1565b6116db576040517f08c379a00000000000000000000000000000000000000000000000000000000081526004016116d2906130b7565b60405180910390fd5b50565b600033905090565b816004600083815260200190815260200160002060006101000a81548173ffffffffffffffffffffffffffffffffffffffff021916908373ffffffffffffffffffffffffffffffffffffffff160217905550808273ffffffffffffffffffffffffffffffffffffffff1661175983610de7565b73ffffffffffffffffffffffffffffffffffffffff167f8c5be1e5ebec7d5bd14f71427d1e84f3dd0314c0f7b2291e5b200ac8c7c3b92560405160405180910390a45050565b8273ffffffffffffffffffffffffffffffffffffffff166117bf82610de7565b73ffffffffffffffffffffffffffffffffffffffff1614611815576040517f08c379a000000000000000000000000000000000000000000000000000000000815260040161180c906135fd565b60405180910390fd5b600073ffffffffffffffffffffffffffffffffffffffff168273ffffffffffffffffffffffffffffffffffffffff1603611884576040517f08c379a000000000000000000000000000000000000000000000000000000000815260040161187b9061368f565b60405180910390fd5b6118918383836001611df2565b8273ffffffffffffffffffffffffffffffffffffffff166118b182610de7565b73ffffffffffffffffffffffffffffffffffffffff1614611907576040517f08c379a00000000000000000000000000000000000000000000000000000000081526004016118fe906135fd565b60405180910390fd5b6004600082815260200190815260200160002060006101000a81549073ffffffffffffffffffffffffffffffffffffffff02191690556001600360008573ffffffffffffffffffffffffffffffffffffffff1673ffffffffffffffffffffffffffffffffffffffff168152602001908152602001600020600082825403925050819055506001600360008473ffffffffffffffffffffffffffffffffffffffff1673ffffffffffffffffffffffffffffffffffffffff16815260200190815260200160002060008282540192505081905550816002600083815260200190815260200160002060006101000a81548173ffffffffffffffffffffffffffffffffffffffff021916908373ffffffffffffffffffffffffffffffffffffffff160217905550808273ffffffffffffffffffffffffffffffffffffffff168473ffffffffffffffffffffffffffffffffffffffff167fddf252ad1be2c89b69c2b068fc378daa952ba7f163c4a11628f55a4df523b3ef60405160405180910390a4611a938383836001611df8565b505050565b600080611aa483610de7565b90508073ffffffffffffffffffffffffffffffffffffffff168473ffffffffffffffffffffffffffffffffffffffff161480611ae65750611ae58185611595565b5b80611b2457508373ffffffffffffffffffffffffffffffffffffffff16611b0c846106ab565b73ffffffffffffffffffffffffffffffffffffffff16145b91505092915050565b60006002600083815260200190815260200160002060009054906101000a900473ffffffffffffffffffffffffffffffffffffffff169050919050565b8173ffffffffffffffffffffffffffffffffffffffff168373ffffffffffffffffffffffffffffffffffffffff1603611bd8576040517f08c379a0000000000000000000000000000000000000000000000000000000008152600401611bcf906136fb565b60405180910390fd5b80600560008573ffffffffffffffffffffffffffffffffffffffff1673ffffffffffffffffffffffffffffffffffffffff16815260200190815260200160002060008473ffffffffffffffffffffffffffffffffffffffff1673ffffffffffffffffffffffffffffffffffffffff16815260200190815260200160002060006101000a81548160ff0219169083151502179055508173ffffffffffffffffffffffffffffffffffffffff168373ffffffffffffffffffffffffffffffffffffffff167f17307eab39ab6107e8899845ad3d59bd9653f200f220920489ca2b5937696c3183604051611cc991906122f2565b60405180910390a3505050565b611ce184848461179f565b611ced84848484611dfe565b611d2c576040517f08c379a0000000000000000000000000000000000000000000000000000000008152600401611d239061378d565b60405180910390fd5b50505050565b606060405180602001604052806000815250905090565b6060611d5482611693565b6000611d5e611d32565b90506000815111611d7e5760405180602001604052806000815250611da9565b80611d8884611f85565b604051602001611d999291906134fb565b6040516020818303038152906040525b915050919050565b60008073ffffffffffffffffffffffffffffffffffffffff16611dd383611b2d565b73ffffffffffffffffffffffffffffffffffffffff1614159050919050565b50505050565b50505050565b6000611e1f8473ffffffffffffffffffffffffffffffffffffffff16612053565b15611f78578373ffffffffffffffffffffffffffffffffffffffff1663150b7a02611e486116de565b8786866040518563ffffffff1660e01b8152600401611e6a9493929190613802565b6020604051808303816000875af1925050508015611ea657506040513d601f19601f82011682018060405250810190611ea39190613863565b60015b611f28573d8060008114611ed6576040519150601f19603f3d011682016040523d82523d6000602084013e611edb565b606091505b506000815103611f20576040517f08c379a0000000000000000000000000000000000000000000000000000000008152600401611f179061378d565b60405180910390fd5b805181602001fd5b63150b7a0260e01b7bffffffffffffffffffffffffffffffffffffffffffffffffffffffff1916817bffffffffffffffffffffffffffffffffffffffffffffffffffffffff191614915050611f7d565b600190505b949350505050565b606060006001611f9484612076565b01905060008167ffffffffffffffff811115611fb357611fb261285d565b5b6040519080825280601f01601f191660200182016040528015611fe55781602001600182028036833780820191505090505b509050600082602001820190505b600115612048578080600190039150507f3031323334353637383961626364656600000000000000000000000000000000600a86061a8153600a858161203c5761203b613890565b5b04945060008503611ff3575b819350505050919050565b6000808273ffffffffffffffffffffffffffffffffffffffff163b119050919050565b600080600090507a184f03e93ff9f4daa797ed6e38ed64bf6a1f01000000000000000083106120d4577a184f03e93ff9f4daa797ed6e38ed64bf6a1f01000000000000000083816120ca576120c9613890565b5b0492506040810190505b6d04ee2d6d415b85acef81000000008310612111576d04ee2d6d415b85acef8100000000838161210757612106613890565b5b0492506020810190505b662386f26fc10000831061214057662386f26fc10000838161213657612135613890565b5b0492506010810190505b6305f5e1008310612169576305f5e100838161215f5761215e613890565b5b0492506008810190505b612710831061218e57612710838161218457612183613890565b5b0492506004810190505b606483106121b157606483816121a7576121a6613890565b5b0492506002810190505b600a83106121c0576001810190505b80915050919050565b60405180610100016040528060008152602001606081526020016060815260200160008152602001600015158152602001600015158152602001600073ffffffffffffffffffffffffffffffffffffffff168152602001600073ffffffffffffffffffffffffffffffffffffffff1681525090565b6000604051905090565b600080fd5b600080fd5b60007fffffffff0000000000000000000000000000000000000000000000000000000082169050919050565b61228781612252565b811461229257600080fd5b50565b6000813590506122a48161227e565b92915050565b6000602082840312156122c0576122bf612248565b5b60006122ce84828501612295565b91505092915050565b60008115159050919050565b6122ec816122d7565b82525050565b600060208201905061230760008301846122e3565b92915050565b600081519050919050565b600082825260208201905092915050565b60005b8381101561234757808201518184015260208101905061232c565b60008484015250505050565b6000601f19601f8301169050919050565b600061236f8261230d565b6123798185612318565b9350612389818560208601612329565b61239281612353565b840191505092915050565b600060208201905081810360008301526123b78184612364565b905092915050565b6000819050919050565b6123d2816123bf565b81146123dd57600080fd5b50565b6000813590506123ef816123c9565b92915050565b60006020828403121561240b5761240a612248565b5b6000612419848285016123e0565b91505092915050565b600073ffffffffffffffffffffffffffffffffffffffff82169050919050565b600061244d82612422565b9050919050565b61245d81612442565b82525050565b60006020820190506124786000830184612454565b92915050565b61248781612442565b811461249257600080fd5b50565b6000813590506124a48161247e565b92915050565b600080604083850312156124c1576124c0612248565b5b60006124cf85828601612495565b92505060206124e0858286016123e0565b9150509250929050565b60008060006060848603121561250357612502612248565b5b600061251186828701612495565b935050602061252286828701612495565b9250506040612533868287016123e0565b9150509250925092565b612546816123bf565b82525050565b6000602082019050612561600083018461253d565b92915050565b600061257282612422565b9050919050565b61258281612567565b82525050565b60006101008201905061259e600083018b61253d565b81810360208301526125b0818a612364565b905081810360408301526125c48189612364565b90506125d3606083018861253d565b6125e060808301876122e3565b6125ed60a08301866122e3565b6125fa60c0830185612579565b61260760e0830184612579565b9998505050505050505050565b600081519050919050565b600082825260208201905092915050565b6000819050602082019050919050565b612649816123bf565b82525050565b600082825260208201905092915050565b600061266b8261230d565b612675818561264f565b9350612685818560208601612329565b61268e81612353565b840191505092915050565b6126a2816122d7565b82525050565b6126b181612567565b82525050565b6000610100830160008301516126d06000860182612640565b50602083015184820360208601526126e88282612660565b915050604083015184820360408601526127028282612660565b91505060608301516127176060860182612640565b50608083015161272a6080860182612699565b5060a083015161273d60a0860182612699565b5060c083015161275060c08601826126a8565b5060e083015161276360e08601826126a8565b508091505092915050565b600061277a83836126b7565b905092915050565b6000602082019050919050565b600061279a82612614565b6127a4818561261f565b9350836020820285016127b685612630565b8060005b858110156127f257848403895281516127d3858261276e565b94506127de83612782565b925060208a019950506001810190506127ba565b50829750879550505050505092915050565b6000602082019050818103600083015261281e818461278f565b905092915050565b60006020828403121561283c5761283b612248565b5b600061284a84828501612495565b91505092915050565b600080fd5b600080fd5b7f4e487b7100000000000000000000000000000000000000000000000000000000600052604160045260246000fd5b61289582612353565b810181811067ffffffffffffffff821117156128b4576128b361285d565b5b80604052505050565b60006128c761223e565b90506128d3828261288c565b919050565b600067ffffffffffffffff8211156128f3576128f261285d565b5b6128fc82612353565b9050602081019050919050565b82818337600083830152505050565b600061292b612926846128d8565b6128bd565b90508281526020810184848401111561294757612946612858565b5b612952848285612909565b509392505050565b600082601f83011261296f5761296e612853565b5b813561297f848260208601612918565b91505092915050565b6000806040838503121561299f5761299e612248565b5b600083013567ffffffffffffffff8111156129bd576129bc61224d565b5b6129c98582860161295a565b92505060206129da858286016123e0565b9150509250929050565b6000610100830160008301516129fd6000860182612640565b5060208301518482036020860152612a158282612660565b91505060408301518482036040860152612a2f8282612660565b9150506060830151612a446060860182612640565b506080830151612a576080860182612699565b5060a0830151612a6a60a0860182612699565b5060c0830151612a7d60c08601826126a8565b5060e0830151612a9060e08601826126a8565b508091505092915050565b60006020820190508181036000830152612ab581846129e4565b905092915050565b612ac6816122d7565b8114612ad157600080fd5b50565b600081359050612ae381612abd565b92915050565b60008060408385031215612b0057612aff612248565b5b6000612b0e85828601612495565b9250506020612b1f85828601612ad4565b9150509250929050565b600067ffffffffffffffff821115612b4457612b4361285d565b5b612b4d82612353565b9050602081019050919050565b6000612b6d612b6884612b29565b6128bd565b905082815260208101848484011115612b8957612b88612858565b5b612b94848285612909565b509392505050565b600082601f830112612bb157612bb0612853565b5b8135612bc1848260208601612b5a565b91505092915050565b60008060008060808587031215612be457612be3612248565b5b6000612bf287828801612495565b9450506020612c0387828801612495565b9350506040612c14878288016123e0565b925050606085013567ffffffffffffffff811115612c3557612c3461224d565b5b612c4187828801612b9c565b91505092959194509250565b60008060408385031215612c6457612c63612248565b5b6000612c72858286016123e0565b925050602083013567ffffffffffffffff811115612c9357612c9261224d565b5b612c9f8582860161295a565b9150509250929050565b60008060408385031215612cc057612cbf612248565b5b6000612cce85828601612495565b9250506020612cdf85828601612495565b9150509250929050565b7f4e487b7100000000000000000000000000000000000000000000000000000000600052602260045260246000fd5b60006002820490506001821680612d3057607f821691505b602082108103612d4357612d42612ce9565b5b50919050565b7f4552433732313a20617070726f76616c20746f2063757272656e74206f776e6560008201527f7200000000000000000000000000000000000000000000000000000000000000602082015250565b6000612da5602183612318565b9150612db082612d49565b604082019050919050565b60006020820190508181036000830152612dd481612d98565b9050919050565b7f4552433732313a20617070726f76652063616c6c6572206973206e6f7420746f60008201527f6b656e206f776e6572206f7220617070726f76656420666f7220616c6c000000602082015250565b6000612e37603d83612318565b9150612e4282612ddb565b604082019050919050565b60006020820190508181036000830152612e6681612e2a565b9050919050565b7f596f75722070726f70657274792068617320616c7265616479206265656e207360008201527f6f6c640000000000000000000000000000000000000000000000000000000000602082015250565b6000612ec9602383612318565b9150612ed482612e6d565b604082019050919050565b60006020820190508181036000830152612ef881612ebc565b9050919050565b7f4552433732313a2063616c6c6572206973206e6f7420746f6b656e206f776e6560008201527f72206f7220617070726f76656400000000000000000000000000000000000000602082015250565b6000612f5b602d83612318565b9150612f6682612eff565b604082019050919050565b60006020820190508181036000830152612f8a81612f4e565b9050919050565b7f4e487b7100000000000000000000000000000000000000000000000000000000600052601160045260246000fd5b6000612fcb826123bf565b9150612fd6836123bf565b9250828203905081811115612fee57612fed612f91565b5b92915050565b7f4e487b7100000000000000000000000000000000000000000000000000000000600052603260045260246000fd5b600061302e826123bf565b91507fffffffffffffffffffffffffffffffffffffffffffffffffffffffffffffffff82036130605761305f612f91565b5b600182019050919050565b7f4552433732313a20696e76616c696420746f6b656e2049440000000000000000600082015250565b60006130a1601883612318565b91506130ac8261306b565b602082019050919050565b600060208201905081810360008301526130d081613094565b9050919050565b7f4552433732313a2061646472657373207a65726f206973206e6f74206120766160008201527f6c6964206f776e65720000000000000000000000000000000000000000000000602082015250565b6000613133602983612318565b915061313e826130d7565b604082019050919050565b6000602082019050818103600083015261316281613126565b9050919050565b7f53656e6420746865206c697374696e6720707269636500000000000000000000600082015250565b600061319f601683612318565b91506131aa82613169565b602082019050919050565b600060208201905081810360008301526131ce81613192565b9050919050565b60008190508160005260206000209050919050565b60006020601f8301049050919050565b600082821b905092915050565b6000600883026132377fffffffffffffffffffffffffffffffffffffffffffffffffffffffffffffffff826131fa565b61324186836131fa565b95508019841693508086168417925050509392505050565b6000819050919050565b600061327e613279613274846123bf565b613259565b6123bf565b9050919050565b6000819050919050565b61329883613263565b6132ac6132a482613285565b848454613207565b825550505050565b600090565b6132c16132b4565b6132cc81848461328f565b505050565b5b818110156132f0576132e56000826132b9565b6001810190506132d2565b5050565b601f82111561333557613306816131d5565b61330f846131ea565b8101602085101561331e578190505b61333261332a856131ea565b8301826132d1565b50505b505050565b600082821c905092915050565b60006133586000198460080261333a565b1980831691505092915050565b60006133718383613347565b9150826002028217905092915050565b61338a8261230d565b67ffffffffffffffff8111156133a3576133a261285d565b5b6133ad8254612d18565b6133b88282856132f4565b600060209050601f8311600181146133eb57600084156133d9578287015190505b6133e38582613365565b86555061344b565b601f1984166133f9866131d5565b60005b82811015613421578489015182556001820191506020850194506020810190506133fc565b8683101561343e578489015161343a601f891682613347565b8355505b6001600288020188555050505b505050505050565b7f4964206e6f742070726573656e74000000000000000000000000000000000000600082015250565b6000613489600e83612318565b915061349482613453565b602082019050919050565b600060208201905081810360008301526134b88161347c565b9050919050565b600081905092915050565b60006134d58261230d565b6134df81856134bf565b93506134ef818560208601612329565b80840191505092915050565b600061350782856134ca565b915061351382846134ca565b91508190509392505050565b7f596f75206861766520616c7265616479206265656e2076657269666965640000600082015250565b6000613555601e83612318565b91506135608261351f565b602082019050919050565b6000602082019050818103600083015261358481613548565b9050919050565b7f4552433732313a207472616e736665722066726f6d20696e636f72726563742060008201527f6f776e6572000000000000000000000000000000000000000000000000000000602082015250565b60006135e7602583612318565b91506135f28261358b565b604082019050919050565b60006020820190508181036000830152613616816135da565b9050919050565b7f4552433732313a207472616e7366657220746f20746865207a65726f2061646460008201527f7265737300000000000000000000000000000000000000000000000000000000602082015250565b6000613679602483612318565b91506136848261361d565b604082019050919050565b600060208201905081810360008301526136a88161366c565b9050919050565b7f4552433732313a20617070726f766520746f2063616c6c657200000000000000600082015250565b60006136e5601983612318565b91506136f0826136af565b602082019050919050565b60006020820190508181036000830152613714816136d8565b9050919050565b7f4552433732313a207472616e7366657220746f206e6f6e20455243373231526560008201527f63656976657220696d706c656d656e7465720000000000000000000000000000602082015250565b6000613777603283612318565b91506137828261371b565b604082019050919050565b600060208201905081810360008301526137a68161376a565b9050919050565b600081519050919050565b600082825260208201905092915050565b60006137d4826137ad565b6137de81856137b8565b93506137ee818560208601612329565b6137f781612353565b840191505092915050565b60006080820190506138176000830187612454565b6138246020830186612454565b613831604083018561253d565b818103606083015261384381846137c9565b905095945050505050565b60008151905061385d8161227e565b92915050565b60006020828403121561387957613878612248565b5b60006138878482850161384e565b91505092915050565b7f4e487b7100000000000000000000000000000000000000000000000000000000600052601260045260246000fdfea2646970667358221220c21de365b667b8444be51bfcb4e8bce55ec31af9b8a4c8221c98366825b9b05364736f6c63430008110033",
  "linkReferences": {},
  "deployedLinkReferences": {}
}